:020000040800F2
:10000000A805002045010008FF0500089B05000821
:10001000FB05000853020008DD0F00080000000087
:10002000000000000000000000000000CD0B0008F0
:1000300069040008000000003B0A0008D50C000815
:100040005F0100085F0100085F0100085F01000810
:100050005F0100085F0100085F0100085F01000800
:100060005F0100085F0100085F0100085F010008F0
:100070005F0100085F0100085F0100085F010008E0
:100080005F0100085F0100085F0100085F010008D0
:100090005F0100085F0100085F0100085F010008C0
:1000A0005F0100085F0100085F0100085F010008B0
:1000B0005F0100085F0100085F0100085F010008A0
:1000C0005F0100085F0100085F0100085F01000890
:1000D0005F010008390D00085F0100085F0100089A
:1000E0005F0100085F0100085F0100085F01000870
:1000F0005F0100085F0100085F0100085F01000860
:100100005F0100085F0100085F0100085F0100084F
:100110005F0100085F0100085F0100085F0100083F
:100120005F0100085F0100085F0100085F0100082F
:10013000DFF80CD000F05CF800480047111600080A
:10014000A80500200648804706480047FEE7FEE76E
:10015000FEE7FEE7FEE7FEE7FEE7FEE7FEE7FEE777
:10016000D90C000831010008D2B201E000F8012BDF
:10017000491EFBD270470022F6E710B513460A4627
:1001800004461946FFF7F0FF204610BD2DE9F05F49
:100190000546002092469B468846064681464024F6
:1001A0001BE0284641464746224600F042F85346A7
:1001B0005A46C01A914110D311461846224600F003
:1001C00029F82D1A67EB01084F462246012000212D
:1001D00000F020F817EB00094E41201EA4F10104A5
:1001E000DFDC484631462A464346BDE8F09F000022
:1001F000064C074D06E0E06840F0010394E8070074
:1002000098471034AC42F6D3FFF796FF5816000813
:1002100078160008202A04DB203A00FA02F10020B8
:1002200070479140C2F1200320FA03F31943904034
:100230007047202A04DB203A21FA02F0002170479F
:1002400021FA02F3D040C2F120029140084319463E
:10025000704700BFFEE72DE9F04107468846154686
:100260000421052000F0F2F80021012000F0D2FE68
:1002700080210A2000F0ABFC002405E0395D092054
:1002800000F0C8FE601CC4B24445F7DB0321012026
:1002900000F0C0FEFF2400BF052000F049FC064628
:1002A000601EC4B21CB106F004000028F4D0222065
:1002B00000F03EFC2870212000F03AFC6870BDE898
:1002C000F081000008B50121042000F0B7FB4FF4D5
:1002D0008070ADF8000010208DF8030002208DF82A
:1002E00002006946284800F0C0F80121042000F00F
:1002F000A5FB1020ADF8000004208DF803000220BB
:100300008DF802006946204800F0AFF80121042072
:1003100000F094FB2020ADF8000010208DF80300C1
:1003200002208DF802006946174800F09EF801216E
:10033000042000F083FB4020ADF8000010208DF871
:10034000030002208DF8020069460F4800F08DF886
:100350000121042000F072FB8020ADF80000102085
:100360008DF8030002208DF802006946064800F06F
:100370007CF800F0EDFA00F07BF900F07FF9412005
:1003800000F00DF908BD0000000801407CB50546ED
:100390002449522000F0B1FA0446002C40D12248F2
:1003A00000F079F90446002C3AD11F4800F00CFB0C
:1003B0000446002C34D101201C49087008460078FE
:1003C000032202EB8000C1B2174B194A602000F0F3
:1003D0009AF9044624BB1CBB14480078032202EBA4
:1003E0008000C1B2104B124A602000F08CF90F4916
:1003F0000978002202EB8101C8B20E4900F053FADD
:1004000004460948C07808498978CDE900100648B3
:100410004378027808A1284600F060FE01207CBDE8
:100420000020FCE7290000202B00002018000020FD
:100430002F00002045010020253032582530325849
:1004400025303258253032580000000070B505467E
:100450000C460026284600F06BFB064626EA0401FF
:10046000284600F0D7FD70BD70472DE9F0410246E7
:1004700000250026002000230024002791F803C057
:100480000CF00F0591F803C00CF0100CBCF1000F3C
:1004900003D091F802C04CEA050591F800C0BCF108
:1004A000000F31D0146800202BE04FF0010C0CFA43
:1004B00000F3B1F800C00CEA03069E4220D183008D
:1004C0004FF00F0C0CFA03F7BC4305FA03FC4CEA9F
:1004D000040491F803C0BCF1280F06D14FF0010CC1
:1004E0000CFA00FCC2F814C00AE091F803C0BCF199
:1004F000480F05D14FF0010C0CFA00FCC2F810C0F7
:10050000401C0828D1D31460B1F800C0BCF1FF0F23
:1005100034DD546800202EE000F1080C4FF0010893
:1005200008FA0CF3B1F800C00CEA03069E4221D190
:1005300083004FF00F0C0CFA03F7BC4305FA03FCE1
:100540004CEA040491F803C0BCF1280F05D100F176
:10055000080C08FA0CF8C2F8148091F803C0BCF13A
:10056000480F07D100F1080C4FF0010808FA0CF809
:10057000C2F81080401C0828CED35460BDE8F0813A
:100580000246002093680B400BB1012000E00020E0
:100590007047416170470161704700BFFEE710B5C9
:1005A0000446412C25D108210846FFF74FFF3D2185
:1005B000112000F02FFD8621172000F02BFD7F2158
:1005C000262000F027FD1E212D2000F023FD002114
:1005D0002C2000F01FFD8D212A2000F01BFD3E2164
:1005E0002B2000F017FD012000F0D2FF00F046F8AC
:1005F00001E0FF2010BD0020FCE700BFFEE77047D0
:1006000070B5002100230F22C47804B3154C246870
:1006100004F4E064C4F5E064210AC1F10403CA40B3
:10062000447804FA03F184781440214309010E4C04
:100630000678A155047804F01F050124AC40057824
:100640006D11AD0005F1E025C5F8004109E0047821
:1006500004F01F050124AC40044D0678761145F8DE
:10066000264070BD0CED00E000E400E080E100E019
:1006700010B503211420FFF7E9FE10BD10B51420BA
:1006800000F056FA044604F0030018B903211420C0
:1006900000F09DFA10BDF0B587B00546002708218F
:1006A0000846FFF7D3FE00210D2000F0B3FC8021A7
:1006B0000E20FFF7CBFE93208DF8040020208DF84C
:1006C000050006A801AB022201A900900C2000F051
:1006D00051F8064686B9002407E001A8005D2855B8
:1006E00001A8005D4740601CC4B2042CF5DB01A8E2
:1006F000005DB84200D0FE2680210E2000F067FA8F
:10070000304607B0F0BD2DE9F04387B006460F46EE
:10071000904699468DF804608DF80570002406E037
:1007200018F8041001AAA01C1154601CC4B2062CB5
:10073000F6DB002407E019F8041001AA04F1080010
:100740001154601CC4B2062CF5DB06A801AB0C22C8
:1007500001A900900E2000F00DF805462DB90820E3
:1007600000F0E6F900F0080000B9FE25284607B0C1
:10077000BDE8F0832DE9FE4F0646884691469A462D
:10078000DDF830B0FE2002900020019000900C2E89
:1007900006D00E2E09D1122001901020009005E005
:1007A000772001903020009000E000BF00BF01984A
:1007B00040F08001022000F02DFC80210420FFF792
:1007C00045FE0021012000F025FC80210A2000F0D8
:1007D000FEF9002505E018F80510092000F01AFCC4
:1007E0006D1C4D45F7D33146012000F013FC0C2E53
:1007F00003D180210D2000F0EAF94FF4FA6500BF23
:10080000042000F095F904466D1E35B104F0010096
:1008100018B9009820400028F2D080210D20FFF761
:1008200015FE95B3062000F083F900F01B0068BBAD
:10083000002002900198204000F0010008B1FF2044
:1008400002900C2E24D10A2000F072F904460C20EC
:1008500000F06EF900F007072FB1601E07EBC00033
:10086000CBF8000002E0E000CBF8000004B901245E
:10087000122C00DD1224002505E0092000F058F9B3
:100880000AF805006D1CA542F7D301E0FE20029096
:1008900080210C2000F09BF90021012000F0BAFB20
:1008A0000298BDE8FE8FF0B587B005460E463020B1
:1008B0008DF804008DF805500DF10602022101A803
:1008C000FFF7C9FC06A801AB042201A900900C2087
:1008D000FFF750FF074667B90698902809D1002412
:1008E00004E001A8005D3055601CC4B2102CF8DB98
:1008F00000E0FE27384607B0F0BD70B588B0054669
:100900000C4608210846FFF7A1FD07210D2000F045
:1009100081FB0321142000F05AF98DF8085007A834
:1009200002AB012202A900900C20FFF723FF06462C
:100930004EB90798102806D19DF8080020709DF840
:100940000900607000E0FE26304608B070BD00006F
:1009500010B54FF480711B48FFF71DFE012000F019
:1009600017FE4FF480711748FFF713FE012000F0C7
:100970000FFE4FF480711348FFF70DFE0A2000F0C0
:1009800007FE022000F0D4F80F21012000F042FB06
:100990003D21112000F03EFB1E212D2000F03AFBEE
:1009A00000212C2000F036FB8D212A2000F032FBA4
:1009B0003E212B2000F02EFB4021152000F02AFBC9
:1009C000002010BD0008014070B588B00546932096
:1009D0008DF8080070208DF8090000208DF80E00B9
:1009E00000240BE0295D02AAA01C11549DF80E0002
:1009F000295D48408DF80E00601CC4B2042CF1DB68
:100A00000DF10F02072102A8FFF725FC0821084677
:100A1000FFF71CFD07A802AB092202A900900C20D9
:100A2000FFF7A8FE064626B90798182801D1002628
:100A300000E0FE26304608B070BD704729B1064A76
:100A400092690243044B9A6104E0034A926982432B
:100A5000014B9A61704700000010024030B5002140
:100A60000022002400232D4D6D6805F00C0121B1FA
:100A7000042905D0082923D105E0294D056022E08D
:100A8000274D05601FE0254D6D6805F47012234D5C
:100A90006D6805F48034022505EB92421CB9214DA6
:100AA000554305600BE01D4D6D6805F400351DB123
:100AB0001C4D5543056002E0194D5543056002E0A9
:100AC000174D056000BF00BF144D6D6805F0F001C3
:100AD0000909154D6B5C0568DD4045600F4D6D687B
:100AE00005F4E061090A104D6B5C4568DD408560E6
:100AF0000A4D6D6805F46051C90A0B4D6B5C456881
:100B0000DD40C560054D6D6805F44041890B074D1A
:100B10006B5CC568B5FBF3F5056130BD00100240A4
:100B200000127A0000093D000000002010000020A3
:100B30002DE9F0410646002580212348FFF729FDD5
:100B40007E2000EA460040F08007082417E040219C
:100B50001D48FFF71EFD07F0800020B120211A4834
:100B6000FFF719FD03E020211748FFF712FD402190
:100B70001548FFF710FD7806070E601EC4B2002C62
:100B8000E5DC082413E040210F48FFF702FD68066A
:100B9000050E40210C48FFF7FEFC10210A48FFF724
:100BA000EFFC012801D145F00105601EC4B2002C04
:100BB000E9DC80210448FFF7EEFC40210248FFF702
:100BC000EAFC2846BDE8F08100080140704770B596
:100BD00005460C4600262846FFF7AAFF064646EAC9
:100BE0000401284600F016FA70BD10B500F002F8B6
:100BF00010BD00000CB50020019000903348006843
:100C000040F480303149086000BF3048006800F48B
:100C1000003000900198401C0190009818B901988C
:100C2000B0F5A06FF1D12948006800F4003010B190
:100C30000120009001E0002000900098012843D19D
:100C40002348006840F01000214908600846006809
:100C500020F0030008600846006840F002000860C9
:100C60001A48406819494860084640684860084684
:100C7000406840F4806048600846406820F47C107A
:100C800048600846406840F4E8104860084600683C
:100C900040F08070086000BF0C48006800F00070F1
:100CA0000028F9D00948406820F00300074948604F
:100CB0000846406840F00200486000BF03484068B2
:100CC00000F00C000828F9D10CBD00000010024013
:100CD000002002407047000010B51348006840F043
:100CE00001001149086008464068104908400E4953
:100CF0004860084600680E4908400B4908600846ED
:100D0000006820F4802008600846406820F4FE0057
:100D100048604FF41F008860FFF767FF4FF00060E6
:100D20000449086010BD0000001002400000FFF8F8
:100D3000FFFFF6FE08ED00E010B540F22551104827
:100D400000F02EF8C8B10E4800F0E6F8C4B20D4825
:100D50004078012800D110BD0A480078FF2800DB48
:100D6000F9E703200749487008460178801C44547D
:100D7000801E0078401C0349087000BFEBE70000AC
:100D8000003801404400002021B1828942F4005221
:100D9000828104E082894DF6FF731A408281704798
:100DA00070B50246002400230025002040F66A1694
:100DB000B14200D100BFC1F3421501F01F0301266B
:100DC00006FA03F3012D02D19689334006E0022D85
:100DD00002D1168A334001E0968A33400C12012674
:100DE00006FA04F41688344013B10CB1012000E077
:100DF000002070BDF0B50346002400260025002029
:100E000040F66A17B94200D100BF1846C1F3421438
:100E100001F01F06012707FA06F5012C01D10C305D
:100E200004E0022C01D1103000E014301AB1076840
:100E30002F43076002E00768AF430760F0BD000082
:100E40002DE9F04786B005460E460024A24600BFB5
:100E5000A1460027B08900B100BF2F462C8A4CF66E
:100E6000FF700440F08804432C82AC894EF6F310E6
:100E70000440B08831890843718908430443AC8138
:100E8000AC8A4FF6FF400440B0890443AC8201A80D
:100E9000FFF7E4FD1F48874202D1DDF810A001E012
:100EA000DDF80CA0A88900F4004040B10AEBCA00AC
:100EB00000EB0A1031684900B0FBF1F807E00AEBDB
:100EC000CA0000EB0A1031688900B0FBF1F8642019
:100ED000B8FBF0F004012009642101FB1089A88906
:100EE00000F4004040B1322000EBC900B0FBF1F04B
:100EF00000F00700044308E0322000EB09106421F1
:100F0000B0FBF1F000F00F0004432C8106B0BDE807
:100F1000F08700000038014001468888C0F30800CF
:100F20007047000010B586B00446012144F2040069
:100F3000FFF784FD4FF40070ADF8140003208DF826
:100F4000160018208DF8170005A91D48FFF78DFA27
:100F50004FF48060ADF8140004208DF8170005A947
:100F60001748FFF782FA25208DF8000003208DF83E
:100F700001008DF8020001208DF803006846FFF79C
:100F80003FFB01940020ADF80800ADF80A00ADF871
:100F90000C00ADF810000C20ADF80E0001A90948B6
:100FA000FFF74EFF012240F225510648FFF722FFCE
:100FB00001210448FFF7E8FE00F006F806B010BD76
:100FC000000801400038014010B540F2011102480C
:100FD000FFF7D1F810BD00004400002000BFFEE77D
:100FE00038B515E069465220FFF787FC044664B126
:100FF00069465220FFF781FC044634B1694652200D
:10100000FFF77BFC044604B138BD0A2000F0C0FAAB
:10101000E8E700002DE9F04106460D46402126484C
:10102000FFF7B7FA80212448FFF7B3FA7E2000EAE1
:101030004607082417E007F0800020B120211E4851
:10104000FFF7A9FA03E020211B48FFF7A2FA40218D
:101050001948FFF7A0FA7806070E40211648FFF757
:1010600098FA601EC4B2002CE5DC082417E005F0F5
:10107000800020B120211048FFF78DFA03E02021E5
:101080000D48FFF786FA40210B48FFF784FA6806FF
:10109000050E40210848FFF77CFA601EC4B2002C00
:1010A000E5DC80210448FFF776FA40210248FFF78B
:1010B00072FABDE8F0810000000801400FB4054B52
:1010C00010B503A9044A029800F02CF810BC5DF892
:1010D00014FB0000F5150008140000200FB4084BA5
:1010E00010B504A902AA039800F01CF8044602A94E
:1010F000002000F048FA204610BC5DF814FB000008
:101100008715000802E008C8121F08C1002AFAD19A
:1011100070477047002001E001C1121F002AFBD177
:10112000704700002DE9FF4F8DB00F4605460026A1
:1011300006E025280BD0DDE90F1290476D1C761CC8
:1011400028780028F5D111B03046BDE8F08F002492
:10115000A246A1460122EC4900E0044315F8013FF4
:10116000203B02FA03F00842F7D128782A2810D051
:101170006FF02F022878A0F13001092914D80AEB6A
:101180008A0102EB410144F0020400EB010A6D1CEC
:10119000F0E701CF5FEA000A03D544F40054CAF136
:1011A000000A44F002046D1C28782E2817D115F887
:1011B000010F44F004042A280ED06FF02F02287883
:1011C000A0F1300109290AD809EB890102EB41019C
:1011D00000EB01096D1CF2E757F8049B6D1C2878A1
:1011E0006C280FD006DC4C2817D068280DD06A2850
:1011F00014D104E0742810D07A280FD10DE044F403
:1012000000140AE044F4801401E044F440146978C6
:10121000814202D104F580146D1C6D1C2A786E2A5F
:101220001FD00CDC632A31D004DC002A8BD0582A72
:1012300011D1A3E0642A68D0692A0CD165E0732A31
:101240002ED004DC6F2A73D0702A04D19BE0752A5B
:101250006FD0782A6ED01046DDE90F129047761CC9
:1012600050E1C4F30250022806D0032809D0042814
:1012700001CF09D0066045E101CFF117C0E9006157
:1012800040E101CF06803DE106703BE117F8040B19
:101290008DF8000000208DF80100EB46012003E0EE
:1012A00057F804BB4FF0FF3061074FF0000102D444
:1012B0000DE008F10101884649450FDA8045F8DB69
:1012C0001BF808100029F4D108E008F10101884654
:1012D0008142FADB1BF808100029F6D1DDE90F2363
:1012E000AAEB08008146214600F036F9304400EBB5
:1012F000080604E0DDE90F121BF8010B9047B8F176
:101300000108F7D221464846F7E00A21C4F3025308
:101310004FF0000B0891022B04D001CFC117032B13
:1013200009D00AE0FF1D27F00707F7E8020108E0EF
:1013300032E01FE020E000B2C117042B01D140B21F
:10134000C117031E71F1000307DA4FF0000CD0EB58
:101350000C006CEB01012D2302E0230504D52B23A7
:101360008DF82430012303E0E30701D02023F7E7C1
:10137000984658E00A2110E010210EE010204FF0AE
:10138000000B08900CE010214FF0000B44F0040417
:101390004FF00809089103E008214FF0000B089175
:1013A000C4F30253022B04D001CF0021032B06D03B
:1013B00006E0FF1D27F00707F7E8020103E080B20F
:1013C000042B00D1C0B24FF0000823072BD5702AA0
:1013D00007D0DDF820C08CF0100C5CEA0B0C05D0B7
:1013E0000EE040238DF82430012308E050EA010389
:1013F00006D030238DF824308DF82520022398461E
:10140000DDF820C08CF0080C5CEA0B0C0BD150EA24
:10141000010301D1630706D530238DF824304FF046
:101420000108A9F10109582A04D038A20B9208AA90
:101430000A920BE03AA2F9E75B46089AFEF7A6FE8D
:101440000B9B9B5C0A9A521E0A92137050EA01028F
:10145000F2D10A98ADEB000000F1200B600702D535
:1014600024F4803401E04FF00109D94502DDA9EBF5
:101470000B0000E0002000EB0B0141440890AAEBB8
:10148000010AE00306D4DDE90F232146504600F0AF
:1014900063F806444FF0000908E009A911F80900B3
:1014A000DDE90F12904709F10109761CC145F4DB13
:1014B000E0030CD5DDE90F232146504600F04CF83F
:1014C000064404E0DDE90F1230209047761C0899AD
:1014D000481E08900029F5DC08E00A980A9900786F
:1014E000491C0A91DDE90F129047761CBBF10001FF
:1014F000ABF1010BF1DC21465046DDE90F2300F092
:1015000019F806446D1C1BE60928010030313233FE
:10151000343536373839616263646566000000002F
:101520003031323334353637383941424344454619
:10153000000000002DE9F041044600251E46174634
:10154000880404D405E039462020B0476D1C641E91
:10155000F9D52846BDE8F0812DE9F0410446002583
:101560001E469046C80301D5302700E02027880496
:1015700004D505E041463846B0476D1C641EF9D5D8
:101580002846BDE8F0810A68531C0B601070704754
:10159000002107E0002200E0521C4EF660239A4230
:1015A000FAD3491C8142F5D3704700B5034603E0E6
:1015B0004FF47A7000F006F8181EA3F101018BB207
:1015C000F6D100BD00EBC001C9004FF0E02251612F
:1015D000002191610521116100BF4FF0E0210969EF
:1015E00001F480310029F8D004214FF0E02211618C
:1015F0007047000000BF054A128802F04002002A2E
:10160000F9D0C2B2014B1B1D1A807047003801404F
:101610001FB5002000900190029003904FF4FA60F3
:10162000FFF7C3FF4FF4E130FFF77CFCFEF74AFE03
:101630000EE06846FEF7AAFE012805D1694605A01E
:10164000FFF73CFDFFF7CCFC4FF47A70FFF7ADFFDE
:10165000EFE7000025730000781600080000002066
:101660004400000004110008BC16000844000020DB
:1016700064050000141100080000000001020304CA
:10168000010203040607080902040608000000001E
:10169000006C69752D627269646765000000000066
:1016A00000000000000000FFFFFFFFFFFF00000040
:0C16B0000000000000000000000000002E
:0400000508000145A9
:00000001FF
